:0C800000F8B500BFF8BC08BC9E467047F5
:10800C000348044B834202D0034B03B1184770471B
:10801C007896000078960000000000000548064B9A
:10802C001B1AD90F01EBA301491002D0034B03B16A
:10803C001847704778960000789600000000000002
:10804C0010B5064C237843B9FFF7DAFF044B13B194
:10805C000448AFF300800123237010BD7896000014
:10806C00000000006C86000008B5044B1BB10449ED
:10807C000448AFF30080BDE80840CFE700000000E3
:10808C007C9600006C860000A3F5803A704700BF18
:10809C00154B002B08BF114B9D46FFF7F5FF002138
:1080AC008B460F461148124A121A00F097F90C4BE6
:1080BC00002B00D098470B4B002B00D0984700208A
:1080CC00002104000D000B4800F0ECF900F05EF903
:1080DC002000290000F096F800F0D2F9000008000A
:1080EC000000000000000000000000007896000076
:1080FC0060980000BD84000080B485B000AF78604B
:10810C000023FB6003E000BFFB680133FB607B686E
:10811C0041F2883202FB03F3FA689A42F3D300BFB0
:10812C0000BF1437BD465DF8047B704780B487B040
:10813C0000AF78607B685B097B617B6803F01F0391
:10814C003B617B69002B01D1084B00E0084BFB60C5
:10815C0001223B6902FA03F31A46FB681A6000BF5E
:10816C001C37BD465DF8047B704700BF0805005006
:10817C000808005080B487B000AF78607B685B095A
:10818C007B617B6803F01F033B617B69002B01D192
:10819C00084B00E0084BFB6001223B6902FA03F339
:1081AC001A46FB681A6000BF1C37BD465DF8047B9D
:1081BC00704700BF0C0500500C08005080B487B00D
:1081CC0000AF78607B685B097B617B6803F01F0301
:1081DC003B617B69002B01D1084B00E0084BFB6035
:1081EC00FB681B6801213A6901FA02F21340184638
:1081FC001C37BD465DF8047B704700BF100500506E
:10820C001008005080B58AB000AF5C4B7B615C4BB2
:10821C003B617B694FF4A0721A603B694FF40072AA
:10822C001A60584BFB60FB680C221A600620FFF7A3
:10823C007DFF0820FFF77AFF2920FFF777FF002347
:10824C00FB840023BB84012387F82330002387F8A9
:10825C002230012387F821304B4B3B600023FB611C
:10826C000023FB720023BB61BB690133BB6197F830
:10827C002130002B49D097F8223028333B4413F897
:10828C00283CBB720620FFF751FF0820FFF74EFF7A
:10829C002920FFF74BFFFA8CBB8C9A4203D2BB7A96
:1082AC001846FFF767FFFB8C0133FB84FB8CB3F59F
:1082BC007A7F2AD30023FB8497F82330002B0DD030
:1082CC00BB8C0533BB84BB8CB3F57A7F1DD34FF4C9
:1082DC007A73BB84002387F8233016E0BB8C053BF4
:1082EC00BB84BB8C002B10D10023BB84012387F8EB
:1082FC00233097F8223001335A4203F0030302F083
:10830C00030258BF534287F822302620FFF756FF4E
:10831C000346002B2DD13220FFF7EEFE2620FFF76F
:10832C004DFF0346002B24D1BB697B607A68FB6947
:10833C00D31AB3F5967F0BD297F82130002B0CBFD4
:10834C0001230023DBB287F821300023FB7201E00C
:10835C000123FB727B68FB6102E00A20FFF7CCFE75
:10836C002620FFF72BFF0346002BF6D03220FFF719
:10837C00C3FE0120FFF7C0FE76E700BF18050050D2
:10838C0018080050180A00500608290670B50F4B43
:10839C000F4DAB42A3EB050607D0B610002455F8E1
:1083AC00043B01349847A642F9D8FFF723FE094D48
:1083BC00094B5E1BAB424FEAA60606D0002455F8CB
:1083CC00043B01349847A642F9D870BD7096000062
:1083DC00709600007096000074960000830730B50C
:1083EC0047D0541E002A3ED0CAB2034601E0013CDD
:1083FC0039D303F8012B9D07F9D1032C2CD9CDB21D
:10840C0005EB05250F2C05EB054535D9A4F110021C
:10841C0022F00F0C03F1100EE6444FEA121C1A4620
:10842C00C2E90055C2E9025510327245F8D10CF17F
:10843C00010214F00C0F03EB021204F00F0C13D01A
:10844C00ACF1040323F003030433134442F8045B3C
:10845C009342FBD10CF003042CB1C9B21C4403F8B9
:10846C00011BA342FBD130BD64461346002CF4D152
:10847C00F9E703461446C0E71A46A446E0E700BFF6
:10848C0008B5064B044613B1002100F07BF8044BF1
:10849C001B6803B19847204600F0D6F89185000080
:1084AC00CC970000002301461A46184600F014B879
:1084BC0038B5074D074C2C1BA41005D0013C55F8C2
:1084CC00043D9847002CF9D1BDE8384000F0BEB807
:1084DC007896000074960000F0B5264C256883B0A1
:1084EC0006460F4605B36C681F2C3FDCA6B1D5F8C9
:1084FC00880048B3D0F8001140F824204FF0010C4C
:10850C000CFA04FC00EB84024CEA0101022EC0F8C8
:10851C000011C2F8803010D0A31C01346C6045F8F7
:10852C002370002003B0F0BD13481449216010B132
:10853C000068C1F88800114DD5E7D0F8043143EA42
:10854C000C03C0F80431E7E70D49CDE9002369B10C
:10855C004FF48470AFF3008040B10021C0E94011AA
:10856C00DDE900236C68C5F88800C5E74FF0FF30E3
:10857C00D8E700BF5C98000000000000D097000016
:10858C00000000002DE9F04FDFF8B890D9F800603A
:10859C0083B0002E34D0884601907568D6F8887068
:1085AC006C1E2DD4013506EB850507F1800BB8F157
:1085BC00000F28D173682A68013BA34216BF002321
:1085CC0074602B60BAB1D6F804A06FB3D7F8001161
:1085DC000123A3400B4227D0D7F8040157F82410ED
:1085EC0003422BD1019890477368D9F8002053456A
:1085FC0020D1B2421ED1013C631CA5F10405D6D199
:10860C0003B0BDE8F08F57B15BF824304345D1D0AF
:10861C00013C621CA5F10405F2D0002FF4D1013C01
:10862C00EED3013CFBD2EBE790477368D9F80020FE
:10863C005345DED0002AE3D01646AEE708469047F5
:0C864C00D2E700BF5C980000FEE700BF12
:0C865800F8B500BFF8BC08BC9E46704797
:0886640030FAFF7F0100000065
:04866C00000000000A
:049670007580000001
:049674004D80000025
:040000030000809DDC
:00000001FF
